{
  "contractName": "Photography",
  "abi": [
    {
      "inputs": [],
      "stateMutability": "nonpayable",
      "type": "constructor"
    },
    {
      "anonymous": false,
      "inputs": [
        {
          "indexed": true,
          "internalType": "address",
          "name": "owner",
          "type": "address"
        },
        {
          "indexed": true,
          "internalType": "address",
          "name": "approved",
          "type": "address"
        },
        {
          "indexed": true,
          "internalType": "uint256",
          "name": "tokenId",
          "type": "uint256"
        }
      ],
      "name": "Approval",
      "type": "event"
    },
    {
      "anonymous": false,
      "inputs": [
        {
          "indexed": true,
          "internalType": "address",
          "name": "owner",
          "type": "address"
        },
        {
          "indexed": true,
          "internalType": "address",
          "name": "operator",
          "type": "address"
        },
        {
          "indexed": false,
          "internalType": "bool",
          "name": "approved",
          "type": "bool"
        }
      ],
      "name": "ApprovalForAll",
      "type": "event"
    },
    {
      "anonymous": false,
      "inputs": [
        {
          "indexed": true,
          "internalType": "address",
          "name": "previousOwner",
          "type": "address"
        },
        {
          "indexed": true,
          "internalType": "address",
          "name": "newOwner",
          "type": "address"
        }
      ],
      "name": "OwnershipTransferred",
      "type": "event"
    },
    {
      "anonymous": false,
      "inputs": [
        {
          "indexed": true,
          "internalType": "address",
          "name": "from",
          "type": "address"
        },
        {
          "indexed": true,
          "internalType": "address",
          "name": "to",
          "type": "address"
        },
        {
          "indexed": true,
          "internalType": "uint256",
          "name": "tokenId",
          "type": "uint256"
        }
      ],
      "name": "Transfer",
      "type": "event"
    },
    {
      "inputs": [
        {
          "internalType": "address",
          "name": "to",
          "type": "address"
        },
        {
          "internalType": "uint256",
          "name": "tokenId",
          "type": "uint256"
        }
      ],
      "name": "approve",
      "outputs": [],
      "stateMutability": "nonpayable",
      "type": "function"
    },
    {
      "inputs": [
        {
          "internalType": "address",
          "name": "owner",
          "type": "address"
        }
      ],
      "name": "balanceOf",
      "outputs": [
        {
          "internalType": "uint256",
          "name": "",
          "type": "uint256"
        }
      ],
      "stateMutability": "view",
      "type": "function"
    },
    {
      "inputs": [
        {
          "internalType": "uint256",
          "name": "tokenId",
          "type": "uint256"
        }
      ],
      "name": "getApproved",
      "outputs": [
        {
          "internalType": "address",
          "name": "",
          "type": "address"
        }
      ],
      "stateMutability": "view",
      "type": "function"
    },
    {
      "inputs": [
        {
          "internalType": "address",
          "name": "owner",
          "type": "address"
        },
        {
          "internalType": "address",
          "name": "operator",
          "type": "address"
        }
      ],
      "name": "isApprovedForAll",
      "outputs": [
        {
          "internalType": "bool",
          "name": "",
          "type": "bool"
        }
      ],
      "stateMutability": "view",
      "type": "function"
    },
    {
      "inputs": [],
      "name": "isMintEnabled",
      "outputs": [
        {
          "internalType": "bool",
          "name": "",
          "type": "bool"
        }
      ],
      "stateMutability": "view",
      "type": "function"
    },
    {
      "inputs": [],
      "name": "maxQuantity",
      "outputs": [
        {
          "internalType": "uint256",
          "name": "",
          "type": "uint256"
        }
      ],
      "stateMutability": "view",
      "type": "function"
    },
    {
      "inputs": [],
      "name": "name",
      "outputs": [
        {
          "internalType": "string",
          "name": "",
          "type": "string"
        }
      ],
      "stateMutability": "view",
      "type": "function"
    },
    {
      "inputs": [],
      "name": "owner",
      "outputs": [
        {
          "internalType": "address",
          "name": "",
          "type": "address"
        }
      ],
      "stateMutability": "view",
      "type": "function"
    },
    {
      "inputs": [
        {
          "internalType": "uint256",
          "name": "tokenId",
          "type": "uint256"
        }
      ],
      "name": "ownerOf",
      "outputs": [
        {
          "internalType": "address",
          "name": "",
          "type": "address"
        }
      ],
      "stateMutability": "view",
      "type": "function"
    },
    {
      "inputs": [],
      "name": "renounceOwnership",
      "outputs": [],
      "stateMutability": "nonpayable",
      "type": "function"
    },
    {
      "inputs": [
        {
          "internalType": "address",
          "name": "from",
          "type": "address"
        },
        {
          "internalType": "address",
          "name": "to",
          "type": "address"
        },
        {
          "internalType": "uint256",
          "name": "tokenId",
          "type": "uint256"
        }
      ],
      "name": "safeTransferFrom",
      "outputs": [],
      "stateMutability": "nonpayable",
      "type": "function"
    },
    {
      "inputs": [
        {
          "internalType": "address",
          "name": "from",
          "type": "address"
        },
        {
          "internalType": "address",
          "name": "to",
          "type": "address"
        },
        {
          "internalType": "uint256",
          "name": "tokenId",
          "type": "uint256"
        },
        {
          "internalType": "bytes",
          "name": "_data",
          "type": "bytes"
        }
      ],
      "name": "safeTransferFrom",
      "outputs": [],
      "stateMutability": "nonpayable",
      "type": "function"
    },
    {
      "inputs": [
        {
          "internalType": "address",
          "name": "operator",
          "type": "address"
        },
        {
          "internalType": "bool",
          "name": "approved",
          "type": "bool"
        }
      ],
      "name": "setApprovalForAll",
      "outputs": [],
      "stateMutability": "nonpayable",
      "type": "function"
    },
    {
      "inputs": [
        {
          "internalType": "bytes4",
          "name": "interfaceId",
          "type": "bytes4"
        }
      ],
      "name": "supportsInterface",
      "outputs": [
        {
          "internalType": "bool",
          "name": "",
          "type": "bool"
        }
      ],
      "stateMutability": "view",
      "type": "function"
    },
    {
      "inputs": [],
      "name": "symbol",
      "outputs": [
        {
          "internalType": "string",
          "name": "",
          "type": "string"
        }
      ],
      "stateMutability": "view",
      "type": "function"
    },
    {
      "inputs": [],
      "name": "totalQuantity",
      "outputs": [
        {
          "internalType": "uint256",
          "name": "",
          "type": "uint256"
        }
      ],
      "stateMutability": "view",
      "type": "function"
    },
    {
      "inputs": [
        {
          "internalType": "address",
          "name": "from",
          "type": "address"
        },
        {
          "internalType": "address",
          "name": "to",
          "type": "address"
        },
        {
          "internalType": "uint256",
          "name": "tokenId",
          "type": "uint256"
        }
      ],
      "name": "transferFrom",
      "outputs": [],
      "stateMutability": "nonpayable",
      "type": "function"
    },
    {
      "inputs": [
        {
          "internalType": "address",
          "name": "newOwner",
          "type": "address"
        }
      ],
      "name": "transferOwnership",
      "outputs": [],
      "stateMutability": "nonpayable",
      "type": "function"
    },
    {
      "inputs": [
        {
          "internalType": "address",
          "name": "",
          "type": "address"
        }
      ],
      "name": "whiteList",
      "outputs": [
        {
          "internalType": "uint256",
          "name": "",
          "type": "uint256"
        }
      ],
      "stateMutability": "view",
      "type": "function"
    },
    {
      "inputs": [],
      "name": "toggleIsMintEnabled",
      "outputs": [],
      "stateMutability": "nonpayable",
      "type": "function"
    },
    {
      "inputs": [],
      "name": "getIsMintEnabled",
      "outputs": [
        {
          "internalType": "bool",
          "name": "",
          "type": "bool"
        }
      ],
      "stateMutability": "nonpayable",
      "type": "function"
    },
    {
      "inputs": [
        {
          "internalType": "uint256",
          "name": "_maxQuantity",
          "type": "uint256"
        }
      ],
      "name": "setMaxQuantity",
      "outputs": [],
      "stateMutability": "nonpayable",
      "type": "function"
    },
    {
      "inputs": [],
      "name": "getMaxQuantity",
      "outputs": [
        {
          "internalType": "uint256",
          "name": "",
          "type": "uint256"
        }
      ],
      "stateMutability": "view",
      "type": "function"
    },
    {
      "inputs": [],
      "name": "getTotalQuantity",
      "outputs": [
        {
          "internalType": "uint256",
          "name": "",
          "type": "uint256"
        }
      ],
      "stateMutability": "view",
      "type": "function"
    },
    {
      "inputs": [
        {
          "internalType": "string",
          "name": "_baseURI",
          "type": "string"
        }
      ],
      "name": "setBaseURI",
      "outputs": [],
      "stateMutability": "nonpayable",
      "type": "function"
    },
    {
      "inputs": [
        {
          "internalType": "uint256",
          "name": "tokenId",
          "type": "uint256"
        }
      ],
      "name": "tokenURI",
      "outputs": [
        {
          "internalType": "string",
          "name": "",
          "type": "string"
        }
      ],
      "stateMutability": "view",
      "type": "function"
    },
    {
      "inputs": [
        {
          "internalType": "address",
          "name": "_address",
          "type": "address"
        }
      ],
      "name": "approveUserToMint",
      "outputs": [],
      "stateMutability": "nonpayable",
      "type": "function"
    },
    {
      "inputs": [
        {
          "internalType": "address",
          "name": "_address",
          "type": "address"
        }
      ],
      "name": "disapproveUserToMint",
      "outputs": [],
      "stateMutability": "nonpayable",
      "type": "function"
    },
    {
      "inputs": [
        {
          "internalType": "string",
          "name": "tokenURI",
          "type": "string"
        }
      ],
      "name": "mint",
      "outputs": [
        {
          "internalType": "uint256",
          "name": "",
          "type": "uint256"
        }
      ],
      "stateMutability": "nonpayable",
      "type": "function"
    }
  ],
  "bytecode": "0x60806040523480156200001157600080fd5b506040518060400160405280600b81526020017f70686f746f6772617068790000000000000000000000000000000000000000008152506040518060400160405280600481526020017f5049435300000000000000000000000000000000000000000000000000000000815250816000908051906020019062000096929190620001af565b508060019080519060200190620000af929190620001af565b505050620000d2620000c6620000e160201b60201c565b620000e960201b60201c565b610bb8600881905550620002c3565b600033905090565b6000600660009054906101000a900473ffffffffffffffffffffffffffffffffffffffff16905081600660006101000a81548173ffffffffffffffffffffffffffffffffffffffff021916908373ffffffffffffffffffffffffffffffffffffffff1602179055508173ffffffffffffffffffffffffffffffffffffffff168173ffffffffffffffffffffffffffffffffffffffff167f8be0079c531659141344cd1fd0a4f28419497f9722a3daafe3b4186f6b6457e060405160405180910390a35050565b828054620001bd906200028e565b90600052602060002090601f016020900481019282620001e157600085556200022d565b82601f10620001fc57805160ff19168380011785556200022d565b828001600101855582156200022d579182015b828111156200022c5782518255916020019190600101906200020f565b5b5090506200023c919062000240565b5090565b5b808211156200025b57600081600090555060010162000241565b5090565b7f4e487b7100000000000000000000000000000000000000000000000000000000600052602260045260246000fd5b60006002820490506001821680620002a757607f821691505b602082108103620002bd57620002bc6200025f565b5b50919050565b61375f80620002d36000396000f3fe608060405234801561001057600080fd5b50600436106101cf5760003560e01c80637474e33111610104578063c4073217116100a2578063e3fa569f11610071578063e3fa569f14610506578063e640cf7d14610524578063e985e9c514610542578063f2fde38b14610572576101cf565b8063c40732171461047e578063c616f41214610488578063c87b56dd146104a6578063d85d3d27146104d6576101cf565b806395d89b41116100de57806395d89b411461040a5780639c99cd1e14610428578063a22cb46514610446578063b88d4fde14610462576101cf565b80637474e331146103b257806386e796be146103d05780638da5cb5b146103ec576101cf565b806342842e0e1161017157806355f804b31161014b57806355f804b31461032c5780636352211e1461034857806370a0823114610378578063715018a6146103a8576101cf565b806342842e0e146102d85780634707cd95146102f45780634a65a57514610310576101cf565b8063095ea7b3116101ad578063095ea7b31461025257806323b872dd1461026e578063346de50a1461028a578063372c12b1146102a8576101cf565b806301ffc9a7146101d457806306fdde0314610204578063081812fc14610222575b600080fd5b6101ee60048036038101906101e99190612326565b61058e565b6040516101fb919061236e565b60405180910390f35b61020c610670565b6040516102199190612422565b60405180910390f35b61023c6004803603810190610237919061247a565b610702565b60405161024991906124e8565b60405180910390f35b61026c6004803603810190610267919061252f565b610787565b005b6102886004803603810190610283919061256f565b61089e565b005b6102926108fe565b60405161029f919061236e565b60405180910390f35b6102c260048036038101906102bd91906125c2565b610911565b6040516102cf91906125fe565b60405180910390f35b6102f260048036038101906102ed919061256f565b610929565b005b61030e600480360381019061030991906125c2565b610949565b005b61032a6004803603810190610325919061247a565b610a0d565b005b6103466004803603810190610341919061274e565b610a93565b005b610362600480360381019061035d919061247a565b610b29565b60405161036f91906124e8565b60405180910390f35b610392600480360381019061038d91906125c2565b610bda565b60405161039f91906125fe565b60405180910390f35b6103b0610c91565b005b6103ba610d19565b6040516103c791906125fe565b60405180910390f35b6103ea60048036038101906103e591906125c2565b610d23565b005b6103f4610de7565b60405161040191906124e8565b60405180910390f35b610412610e11565b60405161041f9190612422565b60405180910390f35b610430610ea3565b60405161043d919061236e565b60405180910390f35b610460600480360381019061045b91906127c3565b610eba565b005b61047c600480360381019061047791906128a4565b610ed0565b005b610486610f32565b005b610490610fda565b60405161049d91906125fe565b60405180910390f35b6104c060048036038101906104bb919061247a565b610fe0565b6040516104cd9190612422565b60405180910390f35b6104f060048036038101906104eb919061274e565b611152565b6040516104fd91906125fe565b60405180910390f35b61050e6112a7565b60405161051b91906125fe565b60405180910390f35b61052c6112b1565b60405161053991906125fe565b60405180910390f35b61055c60048036038101906105579190612927565b6112b7565b604051610569919061236e565b60405180910390f35b61058c600480360381019061058791906125c2565b61134b565b005b60007f80ac58cd000000000000000000000000000000000000000000000000000000007bffffffffffffffffffffffffffffffffffffffffffffffffffffffff1916827bffffffffffffffffffffffffffffffffffffffffffffffffffffffff1916148061065957507f5b5e139f000000000000000000000000000000000000000000000000000000007bffffffffffffffffffffffffffffffffffffffffffffffffffffffff1916827bffffffffffffffffffffffffffffffffffffffffffffffffffffffff1916145b80610669575061066882611442565b5b9050919050565b60606000805461067f90612996565b80601f01602080910402602001604051908101604052809291908181526020018280546106ab90612996565b80156106f85780601f106106cd576101008083540402835291602001916106f8565b820191906000526020600020905b8154815290600101906020018083116106db57829003601f168201915b5050505050905090565b600061070d826114ac565b61074c576040517f08c379a000000000000000000000000000000000000000000000000000000000815260040161074390612a39565b60405180910390fd5b6004600083815260200190815260200160002060009054906101000a900473ffffffffffffffffffffffffffffffffffffffff169050919050565b600061079282610b29565b90508073ffffffffffffffffffffffffffffffffffffffff168373ffffffffffffffffffffffffffffffffffffffff1603610802576040517f08c379a00000000000000000000000000000000000000000000000000000000081526004016107f990612acb565b60405180910390fd5b8073ffffffffffffffffffffffffffffffffffffffff16610821611518565b73ffffffffffffffffffffffffffffffffffffffff161480610850575061084f8161084a611518565b6112b7565b5b61088f576040517f08c379a000000000000000000000000000000000000000000000000000000000815260040161088690612b5d565b60405180910390fd5b6108998383611520565b505050565b6108af6108a9611518565b826115d9565b6108ee576040517f08c379a00000000000000000000000000000000000000000000000000000000081526004016108e590612bef565b60405180910390fd5b6108f98383836116b7565b505050565b600960009054906101000a900460ff1681565b600b6020528060005260406000206000915090505481565b61094483838360405180602001604052806000815250610ed0565b505050565b610951611518565b73ffffffffffffffffffffffffffffffffffffffff1661096f610de7565b73ffffffffffffffffffffffffffffffffffffffff16146109c5576040517f08c379a00000000000000000000000000000000000000000000000000000000081526004016109bc90612c5b565b60405180910390fd5b6001600b60008373ffffffffffffffffffffffffffffffffffffffff1673ffffffffffffffffffffffffffffffffffffffff1681526020019081526020016000208190555050565b610a15611518565b73ffffffffffffffffffffffffffffffffffffffff16610a33610de7565b73ffffffffffffffffffffffffffffffffffffffff1614610a89576040517f08c379a0000000000000000000000000000000000000000000000000000000008152600401610a8090612c5b565b60405180910390fd5b8060088190555050565b610a9b611518565b73ffffffffffffffffffffffffffffffffffffffff16610ab9610de7565b73ffffffffffffffffffffffffffffffffffffffff1614610b0f576040517f08c379a0000000000000000000000000000000000000000000000000000000008152600401610b0690612c5b565b60405180910390fd5b80600a9080519060200190610b25929190612217565b5050565b6000806002600084815260200190815260200160002060009054906101000a900473ffffffffffffffffffffffffffffffffffffffff169050600073ffffffffffffffffffffffffffffffffffffffff168173ffffffffffffffffffffffffffffffffffffffff1603610bd1576040517f08c379a0000000000000000000000000000000000000000000000000000000008152600401610bc890612ced565b60405180910390fd5b80915050919050565b60008073ffffffffffffffffffffffffffffffffffffffff168273ffffffffffffffffffffffffffffffffffffffff1603610c4a576040517f08c379a0000000000000000000000000000000000000000000000000000000008152600401610c4190612d7f565b60405180910390fd5b600360008373ffffffffffffffffffffffffffffffffffffffff1673ffffffffffffffffffffffffffffffffffffffff168152602001908152602001600020549050919050565b610c99611518565b73ffffffffffffffffffffffffffffffffffffffff16610cb7610de7565b73ffffffffffffffffffffffffffffffffffffffff1614610d0d576040517f08c379a0000000000000000000000000000000000000000000000000000000008152600401610d0490612c5b565b60405180910390fd5b610d17600061191d565b565b6000600754905090565b610d2b611518565b73ffffffffffffffffffffffffffffffffffffffff16610d49610de7565b73ffffffffffffffffffffffffffffffffffffffff1614610d9f576040517f08c379a0000000000000000000000000000000000000000000000000000000008152600401610d9690612c5b565b60405180910390fd5b6000600b60008373ffffffffffffffffffffffffffffffffffffffff1673ffffffffffffffffffffffffffffffffffffffff1681526020019081526020016000208190555050565b6000600660009054906101000a900473ffffffffffffffffffffffffffffffffffffffff16905090565b606060018054610e2090612996565b80601f0160208091040260200160405190810160405280929190818152602001828054610e4c90612996565b8015610e995780601f10610e6e57610100808354040283529160200191610e99565b820191906000526020600020905b815481529060010190602001808311610e7c57829003601f168201915b5050505050905090565b6000600960009054906101000a900460ff16905090565b610ecc610ec5611518565b83836119e3565b5050565b610ee1610edb611518565b836115d9565b610f20576040517f08c379a0000000000000000000000000000000000000000000000000000000008152600401610f1790612bef565b60405180910390fd5b610f2c84848484611b4f565b50505050565b610f3a611518565b73ffffffffffffffffffffffffffffffffffffffff16610f58610de7565b73ffffffffffffffffffffffffffffffffffffffff1614610fae576040517f08c379a0000000000000000000000000000000000000000000000000000000008152600401610fa590612c5b565b60405180910390fd5b600960009054906101000a900460ff1615600960006101000a81548160ff021916908315150217905550565b60075481565b6060610feb826114ac565b61102a576040517f08c379a000000000000000000000000000000000000000000000000000000000815260040161102190612e11565b60405180910390fd5b6000600c6000848152602001908152602001600020805461104a90612996565b80601f016020809104026020016040519081016040528092919081815260200182805461107690612996565b80156110c35780601f10611098576101008083540402835291602001916110c3565b820191906000526020600020905b8154815290600101906020018083116110a657829003601f168201915b5050505050905060006110d4611bab565b905060008151036110e957819250505061114d565b60008251111561111e578082604051602001611106929190612e6d565b6040516020818303038152906040529250505061114d565b8061112885611c3d565b604051602001611139929190612e6d565b604051602081830303815290604052925050505b919050565b60006001600b60003373ffffffffffffffffffffffffffffffffffffffff1673ffffffffffffffffffffffffffffffffffffffff16815260200190815260200160002054146111d6576040517f08c379a00000000000000000000000000000000000000000000000000000000081526004016111cd90612edd565b60405180910390fd5b600960009054906101000a900460ff16611225576040517f08c379a000000000000000000000000000000000000000000000000000000000815260040161121c90612f49565b60405180910390fd5b6007546008541161126b576040517f08c379a000000000000000000000000000000000000000000000000000000000815260040161126290612fb5565b60405180910390fd5b6007600081548092919061127e90613004565b9190505550600060075490506112943382611d9d565b61129e8184611dbb565b80915050919050565b6000600854905090565b60085481565b6000600560008473ffffffffffffffffffffffffffffffffffffffff1673ffffffffffffffffffffffffffffffffffffffff16815260200190815260200160002060008373ffffffffffffffffffffffffffffffffffffffff1673ffffffffffffffffffffffffffffffffffffffff16815260200190815260200160002060009054906101000a900460ff16905092915050565b611353611518565b73ffffffffffffffffffffffffffffffffffffffff16611371610de7565b73ffffffffffffffffffffffffffffffffffffffff16146113c7576040517f08c379a00000000000000000000000000000000000000000000000000000000081526004016113be90612c5b565b60405180910390fd5b600073ffffffffffffffffffffffffffffffffffffffff168173ffffffffffffffffffffffffffffffffffffffff1603611436576040517f08c379a000000000000000000000000000000000000000000000000000000000815260040161142d906130be565b60405180910390fd5b61143f8161191d565b50565b60007f01ffc9a7000000000000000000000000000000000000000000000000000000007bffffffffffffffffffffffffffffffffffffffffffffffffffffffff1916827bffffffffffffffffffffffffffffffffffffffffffffffffffffffff1916149050919050565b60008073ffffffffffffffffffffffffffffffffffffffff166002600084815260200190815260200160002060009054906101000a900473ffffffffffffffffffffffffffffffffffffffff1673ffffffffffffffffffffffffffffffffffffffff1614159050919050565b600033905090565b816004600083815260200190815260200160002060006101000a81548173ffffffffffffffffffffffffffffffffffffffff021916908373ffffffffffffffffffffffffffffffffffffffff160217905550808273ffffffffffffffffffffffffffffffffffffffff1661159383610b29565b73ffffffffffffffffffffffffffffffffffffffff167f8c5be1e5ebec7d5bd14f71427d1e84f3dd0314c0f7b2291e5b200ac8c7c3b92560405160405180910390a45050565b60006115e4826114ac565b611623576040517f08c379a000000000000000000000000000000000000000000000000000000000815260040161161a90613150565b60405180910390fd5b600061162e83610b29565b90508073ffffffffffffffffffffffffffffffffffffffff168473ffffffffffffffffffffffffffffffffffffffff161480611670575061166f81856112b7565b5b806116ae57508373ffffffffffffffffffffffffffffffffffffffff1661169684610702565b73ffffffffffffffffffffffffffffffffffffffff16145b91505092915050565b8273ffffffffffffffffffffffffffffffffffffffff166116d782610b29565b73ffffffffffffffffffffffffffffffffffffffff161461172d576040517f08c379a0000000000000000000000000000000000000000000000000000000008152600401611724906131e2565b60405180910390fd5b600073ffffffffffffffffffffffffffffffffffffffff168273ffffffffffffffffffffffffffffffffffffffff160361179c576040517f08c379a000000000000000000000000000000000000000000000000000000000815260040161179390613274565b60405180910390fd5b6117a7838383611e2f565b6117b2600082611520565b6001600360008573ffffffffffffffffffffffffffffffffffffffff1673ffffffffffffffffffffffffffffffffffffffff16815260200190815260200160002060008282546118029190613294565b925050819055506001600360008473ffffffffffffffffffffffffffffffffffffffff1673ffffffffffffffffffffffffffffffffffffffff168152602001908152602001600020600082825461185991906132c8565b92505081905550816002600083815260200190815260200160002060006101000a81548173ffffffffffffffffffffffffffffffffffffffff021916908373ffffffffffffffffffffffffffffffffffffffff160217905550808273ffffffffffffffffffffffffffffffffffffffff168473ffffffffffffffffffffffffffffffffffffffff167fddf252ad1be2c89b69c2b068fc378daa952ba7f163c4a11628f55a4df523b3ef60405160405180910390a4611918838383611e34565b505050565b6000600660009054906101000a900473ffffffffffffffffffffffffffffffffffffffff16905081600660006101000a81548173ffffffffffffffffffffffffffffffffffffffff021916908373ffffffffffffffffffffffffffffffffffffffff1602179055508173ffffffffffffffffffffffffffffffffffffffff168173ffffffffffffffffffffffffffffffffffffffff167f8be0079c531659141344cd1fd0a4f28419497f9722a3daafe3b4186f6b6457e060405160405180910390a35050565b8173ffffffffffffffffffffffffffffffffffffffff168373ffffffffffffffffffffffffffffffffffffffff1603611a51576040517f08c379a0000000000000000000000000000000000000000000000000000000008152600401611a489061336a565b60405180910390fd5b80600560008573ffffffffffffffffffffffffffffffffffffffff1673ffffffffffffffffffffffffffffffffffffffff16815260200190815260200160002060008473ffffffffffffffffffffffffffffffffffffffff1673ffffffffffffffffffffffffffffffffffffffff16815260200190815260200160002060006101000a81548160ff0219169083151502179055508173ffffffffffffffffffffffffffffffffffffffff168373ffffffffffffffffffffffffffffffffffffffff167f17307eab39ab6107e8899845ad3d59bd9653f200f220920489ca2b5937696c3183604051611b42919061236e565b60405180910390a3505050565b611b5a8484846116b7565b611b6684848484611e39565b611ba5576040517f08c379a0000000000000000000000000000000000000000000000000000000008152600401611b9c906133fc565b60405180910390fd5b50505050565b6060600a8054611bba90612996565b80601f0160208091040260200160405190810160405280929190818152602001828054611be690612996565b8015611c335780601f10611c0857610100808354040283529160200191611c33565b820191906000526020600020905b815481529060010190602001808311611c1657829003601f168201915b5050505050905090565b606060008203611c84576040518060400160405280600181526020017f30000000000000000000000000000000000000000000000000000000000000008152509050611d98565b600082905060005b60008214611cb6578080611c9f90613004565b915050600a82611caf919061344b565b9150611c8c565b60008167ffffffffffffffff811115611cd257611cd1612623565b5b6040519080825280601f01601f191660200182016040528015611d045781602001600182028036833780820191505090505b5090505b60008514611d9157600182611d1d9190613294565b9150600a85611d2c919061347c565b6030611d3891906132c8565b60f81b818381518110611d4e57611d4d6134ad565b5b60200101907effffffffffffffffffffffffffffffffffffffffffffffffffffffffffffff1916908160001a905350600a85611d8a919061344b565b9450611d08565b8093505050505b919050565b611db7828260405180602001604052806000815250611fc0565b5050565b611dc4826114ac565b611e03576040517f08c379a0000000000000000000000000000000000000000000000000000000008152600401611dfa9061354e565b60405180910390fd5b80600c60008481526020019081526020016000209080519060200190611e2a929190612217565b505050565b505050565b505050565b6000611e5a8473ffffffffffffffffffffffffffffffffffffffff1661201b565b15611fb3578373ffffffffffffffffffffffffffffffffffffffff1663150b7a02611e83611518565b8786866040518563ffffffff1660e01b8152600401611ea594939291906135c3565b6020604051808303816000875af1925050508015611ee157506040513d601f19601f82011682018060405250810190611ede9190613624565b60015b611f63573d8060008114611f11576040519150601f19603f3d011682016040523d82523d6000602084013e611f16565b606091505b506000815103611f5b576040517f08c379a0000000000000000000000000000000000000000000000000000000008152600401611f52906133fc565b60405180910390fd5b805181602001fd5b63150b7a0260e01b7bffffffffffffffffffffffffffffffffffffffffffffffffffffffff1916817bffffffffffffffffffffffffffffffffffffffffffffffffffffffff191614915050611fb8565b600190505b949350505050565b611fca838361203e565b611fd76000848484611e39565b612016576040517f08c379a000000000000000000000000000000000000000000000000000000000815260040161200d906133fc565b60405180910390fd5b505050565b6000808273ffffffffffffffffffffffffffffffffffffffff163b119050919050565b600073ffffffffffffffffffffffffffffffffffffffff168273ffffffffffffffffffffffffffffffffffffffff16036120ad576040517f08c379a00000000000000000000000000000000000000000000000000000000081526004016120a49061369d565b60405180910390fd5b6120b6816114ac565b156120f6576040517f08c379a00000000000000000000000000000000000000000000000000000000081526004016120ed90613709565b60405180910390fd5b61210260008383611e2f565b6001600360008473ffffffffffffffffffffffffffffffffffffffff1673ffffffffffffffffffffffffffffffffffffffff168152602001908152602001600020600082825461215291906132c8565b92505081905550816002600083815260200190815260200160002060006101000a81548173ffffffffffffffffffffffffffffffffffffffff021916908373ffffffffffffffffffffffffffffffffffffffff160217905550808273ffffffffffffffffffffffffffffffffffffffff16600073ffffffffffffffffffffffffffffffffffffffff167fddf252ad1be2c89b69c2b068fc378daa952ba7f163c4a11628f55a4df523b3ef60405160405180910390a461221360008383611e34565b5050565b82805461222390612996565b90600052602060002090601f016020900481019282612245576000855561228c565b82601f1061225e57805160ff191683800117855561228c565b8280016001018555821561228c579182015b8281111561228b578251825591602001919060010190612270565b5b509050612299919061229d565b5090565b5b808211156122b657600081600090555060010161229e565b5090565b6000604051905090565b600080fd5b600080fd5b60007fffffffff0000000000000000000000000000000000000000000000000000000082169050919050565b612303816122ce565b811461230e57600080fd5b50565b600081359050612320816122fa565b92915050565b60006020828403121561233c5761233b6122c4565b5b600061234a84828501612311565b91505092915050565b60008115159050919050565b61236881612353565b82525050565b6000602082019050612383600083018461235f565b92915050565b600081519050919050565b600082825260208201905092915050565b60005b838110156123c35780820151818401526020810190506123a8565b838111156123d2576000848401525b50505050565b6000601f19601f8301169050919050565b60006123f482612389565b6123fe8185612394565b935061240e8185602086016123a5565b612417816123d8565b840191505092915050565b6000602082019050818103600083015261243c81846123e9565b905092915050565b6000819050919050565b61245781612444565b811461246257600080fd5b50565b6000813590506124748161244e565b92915050565b6000602082840312156124905761248f6122c4565b5b600061249e84828501612465565b91505092915050565b600073ffffffffffffffffffffffffffffffffffffffff82169050919050565b60006124d2826124a7565b9050919050565b6124e2816124c7565b82525050565b60006020820190506124fd60008301846124d9565b92915050565b61250c816124c7565b811461251757600080fd5b50565b60008135905061252981612503565b92915050565b60008060408385031215612546576125456122c4565b5b60006125548582860161251a565b925050602061256585828601612465565b9150509250929050565b600080600060608486031215612588576125876122c4565b5b60006125968682870161251a565b93505060206125a78682870161251a565b92505060406125b886828701612465565b9150509250925092565b6000602082840312156125d8576125d76122c4565b5b60006125e68482850161251a565b91505092915050565b6125f881612444565b82525050565b600060208201905061261360008301846125ef565b92915050565b600080fd5b600080fd5b7f4e487b7100000000000000000000000000000000000000000000000000000000600052604160045260246000fd5b61265b826123d8565b810181811067ffffffffffffffff8211171561267a57612679612623565b5b80604052505050565b600061268d6122ba565b90506126998282612652565b919050565b600067ffffffffffffffff8211156126b9576126b8612623565b5b6126c2826123d8565b9050602081019050919050565b82818337600083830152505050565b60006126f16126ec8461269e565b612683565b90508281526020810184848401111561270d5761270c61261e565b5b6127188482856126cf565b509392505050565b600082601f83011261273557612734612619565b5b81356127458482602086016126de565b91505092915050565b600060208284031215612764576127636122c4565b5b600082013567ffffffffffffffff811115612782576127816122c9565b5b61278e84828501612720565b91505092915050565b6127a081612353565b81146127ab57600080fd5b50565b6000813590506127bd81612797565b92915050565b600080604083850312156127da576127d96122c4565b5b60006127e88582860161251a565b92505060206127f9858286016127ae565b9150509250929050565b600067ffffffffffffffff82111561281e5761281d612623565b5b612827826123d8565b9050602081019050919050565b600061284761284284612803565b612683565b9050828152602081018484840111156128635761286261261e565b5b61286e8482856126cf565b509392505050565b600082601f83011261288b5761288a612619565b5b813561289b848260208601612834565b91505092915050565b600080600080608085870312156128be576128bd6122c4565b5b60006128cc8782880161251a565b94505060206128dd8782880161251a565b93505060406128ee87828801612465565b925050606085013567ffffffffffffffff81111561290f5761290e6122c9565b5b61291b87828801612876565b91505092959194509250565b6000806040838503121561293e5761293d6122c4565b5b600061294c8582860161251a565b925050602061295d8582860161251a565b9150509250929050565b7f4e487b7100000000000000000000000000000000000000000000000000000000600052602260045260246000fd5b600060028204905060018216806129ae57607f821691505b6020821081036129c1576129c0612967565b5b50919050565b7f4552433732313a20617070726f76656420717565727920666f72206e6f6e657860008201527f697374656e7420746f6b656e0000000000000000000000000000000000000000602082015250565b6000612a23602c83612394565b9150612a2e826129c7565b604082019050919050565b60006020820190508181036000830152612a5281612a16565b9050919050565b7f4552433732313a20617070726f76616c20746f2063757272656e74206f776e6560008201527f7200000000000000000000000000000000000000000000000000000000000000602082015250565b6000612ab5602183612394565b9150612ac082612a59565b604082019050919050565b60006020820190508181036000830152612ae481612aa8565b9050919050565b7f4552433732313a20617070726f76652063616c6c6572206973206e6f74206f7760008201527f6e6572206e6f7220617070726f76656420666f7220616c6c0000000000000000602082015250565b6000612b47603883612394565b9150612b5282612aeb565b604082019050919050565b60006020820190508181036000830152612b7681612b3a565b9050919050565b7f4552433732313a207472616e736665722063616c6c6572206973206e6f74206f60008201527f776e6572206e6f7220617070726f766564000000000000000000000000000000602082015250565b6000612bd9603183612394565b9150612be482612b7d565b604082019050919050565b60006020820190508181036000830152612c0881612bcc565b9050919050565b7f4f776e61626c653a2063616c6c6572206973206e6f7420746865206f776e6572600082015250565b6000612c45602083612394565b9150612c5082612c0f565b602082019050919050565b60006020820190508181036000830152612c7481612c38565b9050919050565b7f4552433732313a206f776e657220717565727920666f72206e6f6e657869737460008201527f656e7420746f6b656e0000000000000000000000000000000000000000000000602082015250565b6000612cd7602983612394565b9150612ce282612c7b565b604082019050919050565b60006020820190508181036000830152612d0681612cca565b9050919050565b7f4552433732313a2062616c616e636520717565727920666f7220746865207a6560008201527f726f206164647265737300000000000000000000000000000000000000000000602082015250565b6000612d69602a83612394565b9150612d7482612d0d565b604082019050919050565b60006020820190508181036000830152612d9881612d5c565b9050919050565b7f4552433732314d657461646174613a2055524920717565727920666f72206e6f60008201527f6e6578697374656e7420746f6b656e0000000000000000000000000000000000602082015250565b6000612dfb602f83612394565b9150612e0682612d9f565b604082019050919050565b60006020820190508181036000830152612e2a81612dee565b9050919050565b600081905092915050565b6000612e4782612389565b612e518185612e31565b9350612e618185602086016123a5565b80840191505092915050565b6000612e798285612e3c565b9150612e858284612e3c565b91508190509392505050565b7f4163636f756e74206e6f7420617070726f76656420666f72206d696e74696e67600082015250565b6000612ec7602083612394565b9150612ed282612e91565b602082019050919050565b60006020820190508181036000830152612ef681612eba565b9050919050565b7f4d696e74696e67206973206e6f7420656e61626c656400000000000000000000600082015250565b6000612f33601683612394565b9150612f3e82612efd565b602082019050919050565b60006020820190508181036000830152612f6281612f26565b9050919050565b7f4e4654206d6178206c696d697420616c72656164792072656163686564000000600082015250565b6000612f9f601d83612394565b9150612faa82612f69565b602082019050919050565b60006020820190508181036000830152612fce81612f92565b9050919050565b7f4e487b7100000000000000000000000000000000000000000000000000000000600052601160045260246000fd5b600061300f82612444565b91507fffffffffffffffffffffffffffffffffffffffffffffffffffffffffffffffff820361304157613040612fd5565b5b600182019050919050565b7f4f776e61626c653a206e6577206f776e657220697320746865207a65726f206160008201527f6464726573730000000000000000000000000000000000000000000000000000602082015250565b60006130a8602683612394565b91506130b38261304c565b604082019050919050565b600060208201905081810360008301526130d78161309b565b9050919050565b7f4552433732313a206f70657261746f7220717565727920666f72206e6f6e657860008201527f697374656e7420746f6b656e0000000000000000000000000000000000000000602082015250565b600061313a602c83612394565b9150613145826130de565b604082019050919050565b600060208201905081810360008301526131698161312d565b9050919050565b7f4552433732313a207472616e736665722066726f6d20696e636f72726563742060008201527f6f776e6572000000000000000000000000000000000000000000000000000000602082015250565b60006131cc602583612394565b91506131d782613170565b604082019050919050565b600060208201905081810360008301526131fb816131bf565b9050919050565b7f4552433732313a207472616e7366657220746f20746865207a65726f2061646460008201527f7265737300000000000000000000000000000000000000000000000000000000602082015250565b600061325e602483612394565b915061326982613202565b604082019050919050565b6000602082019050818103600083015261328d81613251565b9050919050565b600061329f82612444565b91506132aa83612444565b9250828210156132bd576132bc612fd5565b5b828203905092915050565b60006132d382612444565b91506132de83612444565b9250827fffffffffffffffffffffffffffffffffffffffffffffffffffffffffffffffff0382111561331357613312612fd5565b5b828201905092915050565b7f4552433732313a20617070726f766520746f2063616c6c657200000000000000600082015250565b6000613354601983612394565b915061335f8261331e565b602082019050919050565b6000602082019050818103600083015261338381613347565b9050919050565b7f4552433732313a207472616e7366657220746f206e6f6e20455243373231526560008201527f63656976657220696d706c656d656e7465720000000000000000000000000000602082015250565b60006133e6603283612394565b91506133f18261338a565b604082019050919050565b60006020820190508181036000830152613415816133d9565b9050919050565b7f4e487b7100000000000000000000000000000000000000000000000000000000600052601260045260246000fd5b600061345682612444565b915061346183612444565b9250826134715761347061341c565b5b828204905092915050565b600061348782612444565b915061349283612444565b9250826134a2576134a161341c565b5b828206905092915050565b7f4e487b7100000000000000000000000000000000000000000000000000000000600052603260045260246000fd5b7f4552433732314d657461646174613a204e6f6e6578697374656e7420746f6b6560008201527f6e00000000000000000000000000000000000000000000000000000000000000602082015250565b6000613538602183612394565b9150613543826134dc565b604082019050919050565b600060208201905081810360008301526135678161352b565b9050919050565b600081519050919050565b600082825260208201905092915050565b60006135958261356e565b61359f8185613579565b93506135af8185602086016123a5565b6135b8816123d8565b840191505092915050565b60006080820190506135d860008301876124d9565b6135e560208301866124d9565b6135f260408301856125ef565b8181036060830152613604818461358a565b905095945050505050565b60008151905061361e816122fa565b92915050565b60006020828403121561363a576136396122c4565b5b60006136488482850161360f565b91505092915050565b7f4552433732313a206d696e7420746f20746865207a65726f2061646472657373600082015250565b6000613687602083612394565b915061369282613651565b602082019050919050565b600060208201905081810360008301526136b68161367a565b9050919050565b7f4552433732313a20746f6b656e20616c7265616479206d696e74656400000000600082015250565b60006136f3601c83612394565b91506136fe826136bd565b602082019050919050565b60006020820190508181036000830152613722816136e6565b905091905056fea2646970667358221220e65e2008e78dab34f7c7687b29cee58b02f2b4f47e968c5db9216c20cd9b4ae764736f6c634300080d0033",
  "immutableReferences": {},
  "source": "\n// SPDX-License-Identifier: MIT\npragma solidity >=0.4.22 <0.9.0;\n\nimport \"@openzeppelin/contracts/token/ERC721/ERC721.sol\";\nimport \"@openzeppelin/contracts/access/Ownable.sol\";\n\ncontract Photography is ERC721, Ownable {\n    using Strings for uint256;\n    uint256 public totalQuantity;\n    uint256 public maxQuantity;\n    bool public isMintEnabled;\n    string private baseURI;\n    mapping(address => uint) public whiteList;\n    mapping(uint256 => string) private tokenURIs;\n\n    constructor() ERC721(\"photography\", \"PICS\"){\n        maxQuantity = 3000;\n    }\n\n    function toggleIsMintEnabled() external onlyOwner{\n        isMintEnabled = !isMintEnabled;\n    }\n\n    function getIsMintEnabled() external returns(bool){\n        return isMintEnabled;\n    }\n\n    function setMaxQuantity(uint256 _maxQuantity) external onlyOwner{\n        maxQuantity = _maxQuantity;\n    }\n\n    function getMaxQuantity() external view returns(uint256){\n        return maxQuantity;\n    }\n\n    function getTotalQuantity() external view returns(uint256){\n        return totalQuantity;\n    }\n\n    function setBaseURI(string memory _baseURI) external onlyOwner {\n        baseURI = _baseURI;\n    }\n\n    function _setTokenURI(uint256 tokenId, string memory _tokenURI) \n        internal \n        virtual\n    {\n        require(_exists(tokenId), \"ERC721Metadata: Nonexistent token\");\n        tokenURIs[tokenId] = _tokenURI;\n    }\n\n    function _baseURI() internal view virtual override returns (string memory) {\n        return baseURI;\n    }\n\n    function tokenURI(uint256 tokenId)\n        public\n        view\n        virtual\n        override\n        returns (string memory)\n    {\n        require(\n            _exists(tokenId),\n            \"ERC721Metadata: URI query for nonexistent token\"\n        );\n\n        string memory _tokenURI = tokenURIs[tokenId];\n        string memory base = _baseURI();\n\n        // If there is no base URI, return the token URI.\n        if (bytes(base).length == 0) {\n            return _tokenURI;\n        }\n        // If both are set, concatenate the baseURI and tokenURI (via abi.encodePacked).\n        if (bytes(_tokenURI).length > 0) {\n            return string(abi.encodePacked(base, _tokenURI));\n        }\n        // If there is a baseURI but no tokenURI, concatenate the tokenID to the baseURI.\n        return string(abi.encodePacked(base, tokenId.toString()));\n    }\n\n    function approveUserToMint(address _address) external onlyOwner{\n        whiteList[_address] = 1;\n    }\n\n    function disapproveUserToMint(address _address) external onlyOwner{\n        whiteList[_address] = 0;\n    }\n\n    function mint(string memory tokenURI) external returns (uint256){\n        require(whiteList[msg.sender] == 1, \"Account not approved for minting\");\n        require(isMintEnabled, \"Minting is not enabled\");\n        require(maxQuantity > totalQuantity, \"NFT max limit already reached\");\n\n        totalQuantity++;\n        uint256 tokenId = totalQuantity;\n        _safeMint(msg.sender, tokenId);\n        _setTokenURI(tokenId, tokenURI);\n        return tokenId;\n    }\n   \n}",
  "sourcePath": "/home/snigdha/photography-nft/contracts/Photography.sol",
  "compiler": {
    "name": "solc",
    "version": "0.8.13+commit.abaa5c0e.Emscripten.clang"
  },
  "schemaVersion": "3.3.4",
  "updatedAt": "2022-04-30T10:19:23.947Z",
  "devdoc": {
    "kind": "dev",
    "methods": {
      "approve(address,uint256)": {
        "details": "See {IERC721-approve}."
      },
      "balanceOf(address)": {
        "details": "See {IERC721-balanceOf}."
      },
      "getApproved(uint256)": {
        "details": "See {IERC721-getApproved}."
      },
      "isApprovedForAll(address,address)": {
        "details": "See {IERC721-isApprovedForAll}."
      },
      "name()": {
        "details": "See {IERC721Metadata-name}."
      },
      "owner()": {
        "details": "Returns the address of the current owner."
      },
      "ownerOf(uint256)": {
        "details": "See {IERC721-ownerOf}."
      },
      "renounceOwnership()": {
        "details": "Leaves the contract without owner. It will not be possible to call `onlyOwner` functions anymore. Can only be called by the current owner. NOTE: Renouncing ownership will leave the contract without an owner, thereby removing any functionality that is only available to the owner."
      },
      "safeTransferFrom(address,address,uint256)": {
        "details": "See {IERC721-safeTransferFrom}."
      },
      "safeTransferFrom(address,address,uint256,bytes)": {
        "details": "See {IERC721-safeTransferFrom}."
      },
      "setApprovalForAll(address,bool)": {
        "details": "See {IERC721-setApprovalForAll}."
      },
      "supportsInterface(bytes4)": {
        "details": "See {IERC165-supportsInterface}."
      },
      "symbol()": {
        "details": "See {IERC721Metadata-symbol}."
      },
      "tokenURI(uint256)": {
        "details": "See {IERC721Metadata-tokenURI}."
      },
      "transferFrom(address,address,uint256)": {
        "details": "See {IERC721-transferFrom}."
      },
      "transferOwnership(address)": {
        "details": "Transfers ownership of the contract to a new account (`newOwner`). Can only be called by the current owner."
      }
    },
    "version": 1
  },
  "userdoc": {
    "kind": "user",
    "methods": {},
    "version": 1
  }
}